:020000042001D9
:100000009711FF5F938181C897020000938282015C
:100010007390523093021000638402007350107C7E
:100020009702000093828215739052301701FFDF10
:10003000130141FD63140100138181CD732540F14B
:10004000814213030040137101FF6385A2001A91DE
:100050008502D5BF970000009380A0046383000051
:100060008290732540F1814501462D229700FFDFE4
:10007000938040F96383000082909702000093828E
:10008000C2007390523003230000F5BF000000004F
:100090008280232003001103E34D73FE82800684D7
:1000A0009702FFDF938202F66385020C9702FFDF5F
:1000B000938242F5F32740F1A14673B00630639670
:1000C000570A1703FFE71303E3F39723FFE793832D
:1000D00063F3630E7300753F1703FFDF130383F2AF
:1000E0009703FFDF938303F2630373005D37170306
:1000F000FF5F130323F19743FF5F9383A3F0630331
:100100007300413F1703FFDF1303C3EF9703FFDFC4
:10011000938343EF63037300AD3F1703FFDF1303C4
:1001200063EE9703FFDF9383E3ED6303730095377B
:100130001703FFDF130303ED9703FFDF938383ECC4
:1001400063037300B9371703FFDF1303A3EB9703B0
:10015000FFDF938323EB63037300253F3707000220
:1001600085471CC30F00300129A0370700021C433C
:10017000EDDFA28082800000F3222034732310344C
:10018000F3233034D5BF411122C6000801003244A8
:100190004101828006849711FF5F938121AF930212
:1001A00000006317550A97420000938222DA170372
:1001B000FF5F130323E59703FF5F93832331638C72
:1001C0006200635A730003A5020091022320A3007A
:1001D0001103E34A73FE97120000938222BA1703B9
:1001E000FFE7130323E29703FFE79383A3E1638C05
:1001F0006200635A730003A5020091022320A3004A
:100200001103E34A73FE0F1000001703FF5F13038F
:10021000E32B9383818D6357730023200300110325
:10022000E34D73FE1702FF5F1302422A11C20296CA
:1002300017150000130545CCEF007048EF00104F74
:10024000171500001305A5FAEF007047EF00B0780E
:100250001D3FFD5673B0463073B04634F32710305F
:10026000372704007D8F09C773B0363073B026304E
:10027000370704007D8F19C373B0061837070100D4
:1002800013078702F98F89CBF32700300967D98FCD
:100290007390073073503000054597050000938533
:1002A000E509170600001306A6093120EF00D0412A
:1002B000A28082808280411106C2F32240F11303A2
:1002C00000006385620073005010F5BFEF007039C5
:0602D00092404101828012
:0802D800E00201200C030120EB
:1002E000011106CE22CC0010EF30202C2326A4FED4
:1002F0008327C4FE99C7B707008013858747EF306F
:1003000040330100F240624405618280011106CE53
:1003100022CC0010EF3060292326A4FE8325C4FEE2
:10032000B707008013858747EF30501A0100F2406D
:06033000624405618280B9
:1003380040030120000000006C6962676C6F7373F2
:100348000000000022140120C8150120AC1501206E
:100358000000000000000000B6180120EA18012083
:10036800AA1401208415012020160120D21601208C
:100378000000000000000000000000000000000075
:100388000000000000000000000000000000000065
:10039800841701205613012000000000000000000F
:1003A8000000000000000000282A01201A2A01206D
:1003B800EE290120EE290120042A0120E22A012049
:1003C800482B0120482B0120F42A0120482B01202A
:1003D800482B0120482B0120062B0120482B012007
:1003E800482B0120482B0120182B0120482B0120E5
:1003F800482B0120482B0120482B01202A2B0120C3
:100408002A2B01202A2B01202A2B01202A2B01200C
:100418002A2B01202A2B01202A2B01202A2B0120FC
:100428002A2B01202A2B01202A2B01202A2B0120EC
:100438002A2B01202A2B01202A2B0120AA2B01205C
:10044800D02E0120B62E0120000000000000000080
:1004580000000000000000008C2C012000000000BB
:10046800622E01208C2E01200000000000000000F8
:100478000000000000000000000000000000000074
:100488000000000000000000202F012000000000F4
:100498000000000000000000000000000000000054
:1004A8003C2F0120AE2F0120F42F01205A300120CB
:1004B800D0300120EA300120FE300120183101201F
:1004C8002C3101208E310120F031012050320120E1
:1004D80070320120B6320120E432012002330120BB
:1004E800223301200100000020000000001BB7009B
:1004F80000366E01010000001F000000030000002C
:100508003F000000010000002000000000366E01DE
:10051800006CDC02030000001F0000000200000065
:100528003F0000000100000010000000808D5B000B
:10053800001BB700000000001F00000003000000BF
:100548003F0000000100000010000000001BB70081
:1005580000366E01010000001F00000002000000CC
:100568003F000000010000001000000000366E018E
:10057800006CDC02030000001F0000000200000005
:100588001F0000000100000008000000808D5B00D3
:10059800001BB700000000001F000000030000005F
:1005A8001F0000000100000008000000001BB70049
:1005B80000366E01010000001F000000020000006C
:1005C8001F000000010000000800000000366E0156
:1005D800006CDC02030000001F00000002000000A5
:1005E8000F0000000100000004000000808D5B0087
:1005F800001BB700000000001F00000003000000FF
:100608000F0000000100000004000000001BB700FC
:1006180000366E01010000001F000000020000000B
:100628000F000000010000000400000000366E0109
:10063800006CDC02030000001F0000000200000044
:10064800070000000100000002000000808D5B0030
:10065800001BB700000000001F000000020000009F
:100668000F0000000100000002000000001BB7009E
:1006780000366E01010000001F00000001000000AC
:100688000F000000010000000200000000366E01AB
:10069800006CDC02030000001F00000001000000E5
:1006A800070000000200000001000000808D5B00D0
:1006B800001BB700000000001F0000000100000040
:1006C800070000000200000001000000001BB70046
:1006D80000366E01010000001F000000010000004C
:1006E80003000000020000000100000000366E0157
:1006F800006CDC02030000001F0000000300000083
:10070800FFFFFFFF0400000001000000808D5B0078
:10071800001BB700000000001F00000003000000DD
:10072800000000000400000001000000001BB700EA
:1007380000366E01010000001F00000003000000E9
:10074800FFFFFFFF040000000100000000366E01FB
:10075800006CDC02030000001F0000000200000023
:10076800FFFFFFFF0600000001000000808D5B0016
:10077800AAC2A2000000000023000000010000003F
:10078800020000000600000001000000AAC2A2004A
:10079800001BB70000000000170000000300000065
:1007A800FFFFFFFF0600000001000000001BB7006C
:1007B8000024F400010000002F00000003000000E6
:1007C800FFFFFFFF06000000010000000024F40006
:1007D80080A81201010000001700000002000000BC
:1007E800FFFFFFFF060000000100000080A81201C3
:1007F80055854501020000002300000002000000AA
:10080800FFFFFFFF0800000001000000808D5B0073
:10081800001BB700000000001F00000003000000DC
:10082800FFFFFFFF0800000001000000001BB700E9
:1008380000366E01010000001F00000002000000E9
:10084800FFFFFFFF080000000100000000366E01F6
:10085800006CDC02030000001F0000000100000023
:10086800FFFFFFFF0A00000001000000808D5B0011
:10087800007C920000000000270000000300000038
:10088800FFFFFFFF0A00000001000000007C92004B
:10089800001BB70000000000130000000200000069
:1008A800FFFFFFFF0A00000001000000001BB70067
:1008B80000F82401010000002700000002000000E9
:1008C800FFFFFFFF0A0000000100000000F82401FC
:1008D80000366E0101000000130000000100000056
:1008E800FFFFFFFF0A0000000100000000366E0154
:1008F80000F049020300000027000000010000008A
:10090800FFFFFFFF0C00000001000000808D5B006E
:1009180000127A00000000002F0000000300000011
:10092800FFFFFFFF0C0000000100000000127A002A
:10093800001BB700000000001700000002000000C4
:10094800FFFFFFFF0C00000001000000001BB700C4
:100958000024F400010000002F0000000200000045
:10096800FFFFFFFF0C000000010000000024F4005E
:1009780000366E01010000001700000001000000B1
:10098800FFFFFFFF0C0000000100000000366E01B1
:1009980080C3C901030000002F000000010000000F
:1009A800FFFFFFFF0C0000000100000080C3C90129
:1009B8000048E801030000002F00000001000000CB
:1009C800FFFFFFFF0E00000001000000808D5B00AC
:1009D800B6A1680000000000370000000300000016
:1009E800FFFFFFFF0E00000001000000B7A1680034
:1009F800001BB700000000001B0000000200000000
:100A0800FFFFFFFF0E00000001000000001BB70001
:100A18006D43D10001000000370000000200000013
:100A2800FFFFFFFF0E000000010000006E43D10031
:100A380000366E01010000001B00000001000000EC
:100A4800FFFFFFFF0E0000000100000000366E01EE
:100A5800DB86A2010300000037000000010000004F
:100A6800FFFFFFFF1000000001000000808D5B0009
:100A7800001BB700000000001F000000020000007B
:100A8800FFFFFFFF1000000001000000001BB7007F
:100A980000366E01010000001F0000000100000088
:100AA800FFFFFFFF1200000001000000808D5B00C7
:100AB800AAC2A200000000002300000002000000FB
:100AC800FFFFFFFF1200000001000000ABC2A20000
:100AD800001BB7000000000011000000010000002A
:100AE800FFFFFFFF1200000001000000001BB7001D
:100AF80055854501010000002300000001000000A9
:100B0800FFFFFFFF1400000001000000808D5B0064
:100B1800007C920000000000270000000200000096
:100B2800FFFFFFFF1400000001000000007C92009E
:100B3800001BB700000000001300000001000000C7
:100B4800FFFFFFFF1400000001000000001BB700BA
:100B580000F8240101000000270000000100000047
:100B6800FFFFFFFF1600000001000000808D5B0002
:100B7800E82A8500000000002B00000002000000A9
:100B8800FFFFFFFF1600000001000000E92A8500B2
:100B9800001BB70000000000150000000100000065
:100BA800FFFFFFFF1600000001000000001BB70058
:100BB800D1550A01010000002B00000001000000CF
:100BC800FFFFFFFF1800000001000000808D5B00A0
:100BD80000127A00000000002F0000000200000050
:100BE800FFFFFFFF180000000100000000127A005C
:100BF800001BB70000000000170000000100000003
:100C0800FFFFFFFF1800000001000000001BB700F5
:100C18000024F400010000002F0000000100000083
:100C2800FFFFFFFF1A00000001000000808D5B003D
:100C380027AE700000000000330000000200000032
:100C4800FFFFFFFF1A0000000100000028AE70003F
:100C5800001BB700000000001900000001000000A0
:100C6800FFFFFFFF1A00000001000000001BB70093
:100C78006658E10001000000330000000100000098
:100C8800FFFFFFFF1C00000001000000808D5B00DB
:100C9800B6A1680000000000370000000200000054
:100CA800FFFFFFFF1C00000001000000B7A1680063
:100CB800001BB700000000001B000000010000003E
:100CC800FFFFFFFF1C00000001000000001BB70031
:100CD8006D43D10001000000370000000100000052
:100CE800FFFFFFFF1E00000001000000808D5B0079
:100CF80000A86100000000003B00000002000000A6
:100D0800FFFFFFFF1E0000000100000000A86100B7
:100D1800001BB700000000001D00000001000000DB
:100D2800FFFFFFFF1E00000001000000001BB700CE
:100D38000050C300010000003B000000010000005B
:100D4800FFFFFFFF2000000001000000808D5B0016
:100D5800001BB700000000001F0000000100000099
:100D6800FFFFFFFF32360120D2360120943A0120DE
:100D8000411122C60008B7270110938787039443B7
:100D9000B72701109387870337076800558F98C3DB
:100DA000B72701109387C7039443B7270110938790
:100DB000C70337076800558F98C3B7570210A107BC
:100DC00041677D1798C3B7570210056713070720BF
:100DD00098C30100324441018280011122CE0010EB
:100DE0002326A4FE2324B4FE0327C4FE8547630EF6
:100DF000F7020327C4FE854763C6E7008327C4FEC6
:100E000089CFA1A80327C4FE89476308F7020327F7
:100E1000C4FE8D47630BF70289A0B7570210938772
:100E20000702032784FE98C30DA8B75702109387C3
:100E30004702032784FE98C30DA0B757021093877B
:100E40008702032784FE98C309A8B7570210938727
:100E5000C702032784FE98C30100010072440561A4
:100E60008280011106CE22CC0010193F232604FEF9
:100E70000327C4FEC1676344F700232604FE9305DD
:100E800000500D45993F930500500545B93793052E
:100E90000050094599378327C4FE85072326F4FEB1
:100EA000232404FE31A0832784FE85072324F4FE37
:100EB000032784FE93073006E3D7E7FE55BFAA85D4
:100EC000814601460145C1A8411122C406C69707C3
:100ED0000000938707152A8499C38145892297F7D3
:100EE000FE5F9387A75A88431C5591C3829722853A
:100EF000EF300004411197F7FFFF9387A73E22C40C
:100F000017F4FFFF1304043E1D8C26C206C6098495
:100F1000BE8411E4B24022449244410182807D1497
:100F200093172400A6979C438297E5B7411197F742
:100F3000FFFF9387A73A22C417F4FFFF1304043A74
:100F40001D8C26C24AC006C6098481443E89639628
:100F5000840297F7FFFF9387673817F4FFFF1304A6
:100F6000E4371D8C098481443E89639F8400B2402C
:100F70002244924402494101828093972400CA97F7
:100F80009C4385048297E1B793972400CA979C43BA
:100F900085048297D9BF97F7FE5F938727539C43B9
:100FA0002A8E9DE317F7FE5F1307075397F7FE5F3F
:100FB00023AEE75017F5FEDF1305C504BA8709C550
:100FC0001C4123AAF18CBA87D8437D487D556347DD
:100FD000E804630E0E0203A887086301080493184F
:100FE0002700C29823A0C800032308100546331623
:100FF000E6003363C3002320681023A0D808894685
:101000006317DE0083264810558E2322C8109306EE
:1010100017000A07D4C3BA978CC70145828079713B
:1010200052CC56CA5AC85EC606D622D426D24AD058
:101030004ECE62C42A8B2E8A97FAFE5F938A0A49A3
:10104000854B03A40A0011C84440832984081389EE
:10105000F4FF8A04A294635E0900B25022549254B1
:101060000259F249624AD24A424BB24B224C456184
:101070008280630E0A00639509007D19F114E1BFB7
:1010800093172900CE9783A70708E39847FF584096
:10109000DC407D176318270323222401F9DF032C8A
:1010A00044006388090083A6091033972B01F98E49
:1010B00089EE8297584083A70A00E31487F9E30E6C
:1010C000F4FA41B723A20400D1BF93162900CE96AB
:1010D0008C4283A64910758F01E75A858297D9BF44
:1010E0002E858297C1BF011106CE22CC0010B70712
:1010F000008083A7C74CA9EFB7070080054723A648
:10110000E74CB70701201387072EB7070120938705
:10111000872D63F1E704B70701209387872D2326E6
:10112000F4FE31A88327C4FE9C432324F4FE8327C6
:1011300084FE82978327C4FE91072326F4FE0327AB
:10114000C4FEB70701209387072EE31DF7FC21A0FB
:10115000010011A00100F24062440561828001118A
:1011600006CE22CC0010B707008083A7074DA9EF59
:10117000B7070080054723A8E74CB707012013876E
:10118000072EB70701209387072E63F1E704B707FF
:1011900001209387072E2326F4FE31A88327C4FE5F
:1011A0009C432324F4FE832784FE82978327C4FE76
:1011B00091072326F4FE0327C4FEB7070120938777
:1011C000072EE31DF7FC21A0010011A00100F24051
:1011D000624405618280411106C622C4000821379D
:1011E0000100B240224441018280411106C622C45E
:1011F0000008B5370100B24022444101828001114C
:1012000022CE00102326A4FE0327C4FEB7070080C9
:10121000938707496315F700B707000211A08147BC
:101220003E85724405618280011122CE0010232682
:10123000A4FE0327C4FEB707008093870749631401
:10124000F700894711A081473E857244056182807D
:10125000011122CE00102326A4FE2324B4FE8327EE
:1012600084FE91E7B70700809387070921A8032729
:1012700084FE85476317F700B70700809387070947
:1012800011A081473E85724405618280011122CE02
:1012900000102326A4FE2324B4FE832784FE99E3B2
:1012A0008D4709A8032784FE85476314F7009D47EF
:1012B00011A081473E857244056182805D7186C6BA
:1012C000A2C4CAC2CEC052DE56DC5ADA5ED862D69A
:1012D00066D48008232EA4FA8327C4FB3E850537F5
:1012E0002326A4FC0327C4FCB167F117BA979C43DB
:1012F0002324F4FC0327C4FCB167E117BA979C438D
:101300002322F4FC0327C4FCB167F117BA979C436E
:10131000032784FCE318F7FC832784FC3E8C814C74
:1013200093190C000149832744FC3E8A814A336BA0
:101330004901B3EB5901DA875E883E85C285B64024
:10134000264416498649725AE25A525BC25B325CA5
:10135000A25C61618280797106D622D44AD24ED0D5
:101360000018232EA4FC232CB4FC2328C4FC232A1D
:10137000D4FC8327C4FD2326F4FE8327C4FE3E85C8
:10138000BD3D2324A4FE832784FD8E073E8783274B
:1013900084FE3E9791679107BA973E87FD571CC31D
:1013A000832784FD8E073E87832784FE3E979167BF
:1013B000BA973E87832704FD1CC3832744FD13D9B6
:1013C00007008149832784FD8E073E87832784FE9B
:1013D0003E9791679107BA974A8798C381473E85A0
:1013E000B25022541259825945618280011106CEB1
:1013F00022CC0010232604FEF32740F12326F4FE1E
:101400008327C4FE3E85EF2050132324A4FE03252A
:1014100084FEEF203010AA873E85F24062440561C9
:101420008280397106DE22DC80002326A4FC03259D
:10143000C4FCDD3B2324A4FE8327C4FC2322F4FE4A
:10144000832744FEDC43A9EF232604FE81A08325E5
:10145000C4FE0325C4FCED3B2320A4FE8325C4FE6B
:101460000325C4FC2535232EA4FC832704FE9C43BE
:10147000DC4F8326C4FC01468325C4FD032504FEFE
:1014800082978327C4FE85072326F4FE0327C4FE24
:10149000832784FEE34DF7FA832744FE0547D8C32C
:1014A0000100F250625421618280397106DE22DC33
:1014B00080002326A4FC2324B4FC2322C4FC232084
:1014C000D4FCFD572326F4FEEF10C0482320A4FED1
:1014D000232404FE213F232EA4FC0325C4FCA933AE
:1014E000232CA4FC032704FE85476308F700832709
:1014F00004FE81C78327C4FE49A0232204FE91A0D5
:10150000832544FE0325C4FC5133232AA4FC8325F0
:1015100044FE0325C4FC2D3B2324A4FE0327C4FD65
:10152000832784FE6318F700032784FC832744FD88
:101530006300F702232404FE832744FE8507232249
:10154000F4FE032744FE832784FDE34BF7FA11A042
:101550000100832784FE85C3832784FE9C43DC4FE0
:10156000832604FC032644FC832584FC032584FE97
:1015700082972326A4FE8327C4FE3E85F250625440
:1015800021618280797122D60018232EA4FC232C9D
:10159000B4FC232AC4FC2328D4FCFD572326F4FEE4
:1015A0008327C4FE3E85325445618280011106CEF8
:1015B00022CC00102326A4FEEF10C039AA873E8556
:1015C000F240624405618280797106D622D4001807
:1015D000232EA4FC232CB4FCFD572326F4FE39351E
:1015E0002324A4FE832784FE95C3032784FD854717
:1015F00063E0E702832784FE9C43DC43832584FD6C
:10160000032584FE82972326A4FE21A0010011A0B9
:1016100001008327C4FE3E85B2502254456182807A
:10162000397106DE22DC80002326A4FC2324B4FCCE
:10163000FD572326F4FE832784FCC9C7232404FE18
:1016400075332320A4FE0325C4FCF93E232EA4FCFD
:10165000232204FE91A0832544FE0325C4FC3D31D2
:10166000232CA4FC832544FE0325C4FCD536232467
:10167000A4FE032704FE832784FE6318F7000327D4
:1016800084FC832784FD6300F702232404FE832760
:1016900044FE85072322F4FE032744FE8327C4FD6E
:1016A000E34BF7FA11A00100832784FE81CF832743
:1016B00084FE9C43DC53832584FC032584FE8297AF
:1016C0002326A4FE8327C4FE3E85F2506254216186
:1016D0008280397106DE22DC80002326A4FC2324CC
:1016E000B4FCFD572326F4FE832784FCC9C72324BA
:1016F00004FEED392320A4FE0325C4FC3536232E39
:10170000A4FC232204FE91A0832544FE0325C4FCEF
:10171000B53E232CA4FC832544FE0325C4FC0D3ECA
:101720002324A4FE032704FE832784FE6318F70006
:10173000032784FC832784FD6300F702232404FE2F
:10174000832744FE85072322F4FE032744FE8327D4
:10175000C4FDE34BF7FA11A00100832784FE81CF7B
:10176000832784FE9C439C57832584FC032584FEA9
:1017700082972326A4FE8327C4FE3E85F25062543E
:1017800021618280797106D622D40018232EA4FC10
:10179000232CB4FC232AC4FCFD572326F4FE832704
:1017A000C4FD2324F4FE0325C4FD913C2322A4FEA2
:1017B000032784FD89476308F704032784FD8947CD
:1017C00063C8E700032784FD8547630EF700E9A897
:1017D000032784FD8D47630CF704032784FD91479D
:1017E0006308F708D1A0832744FDC5CB032584FEF9
:1017F000F134AA872E88032744FD1CC32322070146
:10180000232604FE59A8832744FDD1CB832744FD1A
:101810009C432320F4FE832704FE8A073E87832708
:1018200044FEBA9723A00700232604FE8DA8832731
:1018300044FDA5CB832744FD9C432320F4FE83274E
:1018400004FE8A073E87832744FEBA973E87854772
:101850001CC30F008004832704FE8A073E8783276A
:1018600044FEBA979C432326F4FE232604FE15A8C3
:10187000232604FE832744FD9DC7832744FD9C4304
:101880002320F4FE832704FE8A073E87832744FE35
:10189000BA979C432326F4FE39A0010031A0010031
:1018A00021A0010011A001008327C4FE3E85B25093
:1018B000225445618280797106D622D40018232EE5
:1018C000A4FC232CB4FCEF20204AAA872326F4FE94
:1018D0009307C4FE3E8689450325C4FD6535AA8766
:1018E0003E85B250225445618280797106D622D459
:1018F0000018232EA4FC232CB4FCEF20E046AA877A
:101900002326F4FE9307C4FE3E868D450325C4FDC1
:10191000953DAA873E85B2502254456182800111CF
:1019200022CE00102326A4FE0327C4FE9387018144
:101930006314F700814711A0FD573E85724405618D
:101940008280011122CE00102326A4FE0327C4FEAC
:10195000938701816317F700B727F4009387074047
:1019600011A081473E85724405618280011122CE1B
:1019700000102326A4FE0327C4FE9387018163176A
:10198000F700B70700809387070911A081473E85BC
:10199000724405618280011122CE00102326A4FE2C
:1019A0000327C4FE938701816314F700814711A0C8
:1019B00081473E85724405618280011122CE00106C
:1019C0002326A4FE8327C4FE634CF000B7070080E3
:1019D0000327C4FE0A079387C748BA979C4311A000
:1019E00081473E85724405618280011122CE00103C
:1019F000F32740F12326F4FE8327C4FE3E8572447C
:101A000005618280011122CE0010A147F3A70730A3
:101A10002326F4FE0100724405618280011122CE6A
:101A20000010A147F3B707302326F4FE01007244EB
:101A300005618280011122CE0010A147F3A7473033
:101A40002326F4FE0100724405618280011122CE3A
:101A50000010A147F3B747302326F4FE010072447B
:101A600005618280011122CE001093070008F3A7C0
:101A700047302326F4FE0100724405618280011183
:101A800022CE001093070008F3B747302326F4FE58
:101A90000100724405618280011122CE0010856729
:101AA00093870780F3A747302326F4FE0100724492
:101AB00005618280011122CE00108567938707801F
:101AC000F3B747302326F4FE01007244056182809B
:101AD000797122D60018232EA4FC8327C4FD054764
:101AE000B317F7002326F4FE8327C4FEF3A747307D
:101AF0002324F4FE0100325445618280797122D69C
:101B00000018232EA4FC8327C4FD0547B317F70054
:101B10002326F4FE8327C4FEF3B747302324F4FEC4
:101B20000100325445618280011106CE22CC0010A2
:101B30002326A4FE2324B4FE13054006EF206024D0
:101B4000011106CE22CC00102326A4FE2324B4FECD
:101B50001305800CEF20E0225D7186C696C49AC200
:101B60009EC022DE2ADC2EDA32D836D63AD43ED2D5
:101B700042D046CE72CC76CA7AC87EC6800813059B
:101B8000C012EF2000201D7186CE96CC9ACA9EC846
:101B9000A2C6AAC4AEC2B2C036DE3ADC3EDA42D831
:101BA00046D672D476D27AD07ECE80103D3D2A873A
:101BB000B70700800A079387C748BA979C43232634
:101BC000F4FA8327C4FA85C70325C4FA45332324CE
:101BD000A4FA832784FA83A7070E2322F4FA832723
:101BE00084FA83A7870D832544FA0D458297010067
:101BF000F640E6425643C6433644264596450646D9
:101C0000F2566257D2574258B258225E925E025F35
:101C1000F24F256173002030797106D622D4001866
:101C2000232EA4FC232CB4FCC9332A87B7070080D9
:101C30000A079387C748BA979C432326F4FEF327E5
:101C400020342324F4FE8327C4FE95C70325C4FE55
:101C5000313B2322A4FE832784FE93F7F73F03271B
:101C600044FE9387870E8A07BA979C438325C4FD59
:101C70000325C4FE82970100B25022544561828040
:101C80001D7186CE96CC9ACA9EC8A2C6AAC4AEC200
:101C9000B2C036DE3ADC3EDA42D846D672D476D2CC
:101CA0007AD07ECE801091332A87B70700800A074A
:101CB0009387C748BA979C432326F4FA8327C4FA2C
:101CC00085C70325C4FA5D312324A4FA832784FA47
:101CD00083A707142322F4FA832784FA83A78713A0
:101CE000832544FA1D4582970100F640E64256439B
:101CF000C6433644264596450646F2566257D257A5
:101D00004258B258225E925E025FF24F2561730024
:101D10002030011122CE00102326A4FE2324B4FE7D
:101D20000100724405618280797106D622D40018C0
:101D3000232EA4FC232CB4FC4D39AA873E85B5394B
:101D40002326A4FE0325C4FEEF10C02A2320A4FEF0
:101D50002322B4FE832704FE032844FEA94501463E
:101D6000B386B70036853335F5003307C800B307AF
:101D7000E5003E87B6873A88BE8542860325C4FEC5
:101D8000EF10A02D0100B250225445618280000066
:101D90000000000000000000000000000000000043
:101DA0000000000000000000000000000000000033
:101DB0000000000000000000000000000000000023
:101DC0000000000000000000000000000000000013
:101DD0000000000000000000000000000000000003
:101DE00000000000000000000000000000000000F3
:101DF00000000000000000000000000000000000E3
:101E0000197186DE96DC9ADA9ED8A2D6AAD4AED212
:101E1000B2D0B6CEBACCBECAC2C8C6C6F2C4F6C22A
:101E2000FAC07EDE0001D1362A87B70700800A0794
:101E30009387C748BA979C432326F4FAF3272034A4
:101E40002324F4FAF32710342322F4FAF32730344E
:101E50002320F4FAF3275030232EF4F88327C4FA12
:101E6000F5CB0325C4FA1936232CA4F8832784FA6A
:101E700093F7F73F232AF4F8832784FA63DE070AEF
:101E8000032744F9930700086312F702832784F9B4
:101E900083A787392328F4F8832784F983A7073990
:101EA000832504F9032544F982976DA0032744F99B
:101EB000AD4763D7E7008327C4F993F7F7039DEF96
:101EC000832684F9032744F9BA878607BA978E07D1
:101ED000B69783A787092328F4F8832684F9032774
:101EE00044F9BA878607BA978E07B69783A707097A
:101EF000832504F9032544F98297A9A88327C4F907
:101F000013F7F70389476317F704F3277030232685
:101F1000F4F8832784F983A7C70D2328F4F88327CF
:101F2000C4F89C432324F4F8832784F8832504F918
:101F3000032544F9829739A8032784F9832744F9B4
:101F40009387870E8A07BA979C43832544F9032514
:101F5000C4FA8297F650E6525653C6533654265565
:101F600096550656F6466647D6474648B648264E24
:101F7000964E064FF25F09617300203000000000AA
:101F80000000000000000000000000000000000051
:101F90000000000000000000000000000000000041
:101FA0000000000000000000000000000000000031
:101FB0000000000000000000000000000000000021
:101FC0000000000000000000000000000000000011
:101FD0000000000000000000000000000000000001
:101FE00000000000000000000000000000000000F1
:101FF0000000000000001D7186CE96CC9ACA9EC8D3
:10200000A2C6AAC4AEC2B2C036DE3ADC3EDA42D8BC
:1020100046D672D476D27AD07ECE8010F9322A8714
:10202000B70700800A079387C748BA979C432326BF
:10203000F4FA8327C4FA8DC70325C4FAEFF01F937F
:102040002324A4FA832784FA83A787212322F4FA7E
:10205000832784FA83A70721832544FA4145829781
:102060000100F640E6425643C643364426459645AF
:102070000646F2566257D2574258B258225E925ED6
:10208000025FF24F2561730020301D7186CE96CC21
:102090009ACA9EC8A2C6AAC4AEC2B2C036DE3ADC94
:1020A0003EDA42D846D672D476D27AD07ECE80102E
:1020B000EFF0BF932A87B70700800A079387C748C6
:1020C000BA979C432326F4FA8327C4FA8DC70325C5
:1020D000C4FAEFF0BF892324A4FA832784FA83A7E4
:1020E00007232322F4FA832784FA83A787228325F0
:1020F00044FA454582970100F640E6425643C643FE
:102100003644264596450646F2566257D2574258FF
:10211000B258225E925E025FF24F2561730020305A
:102120001D7186CE96CC9ACA9EC8A2C6AAC4AEC25B
:10213000B2C036DE3ADC3EDA42D846D672D476D227
:102140007AD07ECE8010EFF05F8A2A87B7070080B2
:102150000A079387C748BA979C432326F4FA832734
:10216000C4FA8DC70325C4FAEFF05F802324A4FAD4
:10217000832784FA83A787242322F4FA832784FA07
:1021800083A70724832544FA494582970100F64036
:10219000E6425643C6433644264596450646F25621
:1021A0006257D2574258B258225E925E025FF24F97
:1021B0002561730020301D7186CE96CC9ACA9EC8C8
:1021C000A2C6AAC4AEC2B2C036DE3ADC3EDA42D8FB
:1021D00046D672D476D27AD07ECE8010EFF0FF80D1
:1021E0002A87B70700800A079387C748BA979C4396
:1021F0002326F4FA8327C4FA8DC70325C4FAEFF027
:10220000EFF62324A4FA832784FA83A70726232240
:10221000F4FA832784FA83A78725832544FA4D455A
:1022200082970100F640E6425643C64336442645AF
:1022300096450646F2566257D2574258B258225E29
:10224000925E025FF24F2561730020301D7186CED1
:1022500096CC9ACA9EC8A2C6AAC4AEC2B2C036DE86
:102260003ADC3EDA42D846D672D476D27AD07ECEE6
:102270008010EFF08FF72A87B70700800A0793874F
:10228000C748BA979C432326F4FA8327C4FA8DC71C
:102290000325C4FAEFF08FED2324A4FA832784FAF0
:1022A00083A787272322F4FA832784FA83A70727A3
:1022B000832544FA514582970100F640E642564391
:1022C000C6433644264596450646F2566257D257CF
:1022D0004258B258225E925E025FF24F256173004F
:1022E00020301D7186CE96CC9ACA9EC8A2C6AAC4BA
:1022F000AEC2B2C036DE3ADC3EDA42D846D672D43E
:1023000076D27AD07ECE8010EFF02FEE2A87B707F4
:1023100000800A079387C748BA979C432326F4FA9C
:102320008327C4FA8DC70325C4FAEFF02FE42324D2
:10233000A4FA832784FA83A707292322F4FA8327A0
:1023400084FA83A78728832544FA5545829701009C
:10235000F640E6425643C643364426459645064671
:10236000F2566257D2574258B258225E925E025FCE
:10237000F24F2561730020301D7186CE96CC9ACA2B
:102380009EC8A2C6AAC4AEC2B2C036DE3ADC3EDAED
:1023900042D846D672D476D27AD07ECE8010EFF074
:1023A000CFE42A87B70700800A079387C748BA9700
:1023B0009C432326F4FA8327C4FA8DC70325C4FA65
:1023C000EFF0CFDA2324A4FA832784FA83A7872A9D
:1023D0002322F4FA832784FA83A7072A832544FA61
:1023E000594582970100F640E6425643C6433644BB
:1023F000264596450646F2566257D2574258B2587D
:10240000225E925E025FF24F2561730020301D71E3
:1024100086CE96CC9ACA9EC8A2C6AAC4AEC2B2C084
:1024200036DE3ADC3EDA42D846D672D476D27AD05C
:102430007ECE8010EFF06FDB2A87B70700800A0797
:102440009387C748BA979C432326F4FA8327C4FA94
:102450008DC70325C4FAEFF06FD12324A4FA832794
:1024600084FA83A7072C2322F4FA832784FA83A70C
:10247000872B832544FA5D4582970100F640E642AA
:102480005643C6433644264596450646F25662579D
:10249000D2574258B258225E925E025FF24F2561D7
:1024A000730020301D7186CE96CC9ACA9EC8A2C6F3
:1024B000AAC4AEC2B2C036DE3ADC3EDA42D846D654
:1024C00072D476D27AD07ECE8010EFF00FD22A87E7
:1024D000B70700800A079387C748BA979C4323260B
:1024E000F4FA8327C4FA8DC70325C4FAEFF00FC8A6
:1024F0002324A4FA832784FA83A7872D2322F4FABE
:10250000832784FA83A7072D832544FA61458297A0
:102510000100F640E6425643C643364426459645FA
:102520000646F2566257D2574258B258225E925E21
:10253000025FF24F2561730020301D7186CE96CC6C
:102540009ACA9EC8A2C6AAC4AEC2B2C036DE3ADCDF
:102550003EDA42D846D672D476D27AD07ECE801079
:10256000EFF0AFC82A87B70700800A079387C748EC
:10257000BA979C432326F4FA8327C4FA8DC7032510
:10258000C4FAEFF0AFBE2324A4FA832784FA83A70A
:10259000072F2322F4FA832784FA83A7872E832523
:1025A00044FA654582970100F640E6425643C64329
:1025B0003644264596450646F2566257D25742584B
:1025C000B258225E925E025FF24F256173002030A6
:1025D0001D7186CE96CC9ACA9EC8A2C6AAC4AEC2A7
:1025E000B2C036DE3ADC3EDA42D846D672D476D273
:1025F0007AD07ECE8010EFF04FBF2A87B7070080D9
:102600000A079387C748BA979C432326F4FA83277F
:10261000C4FA8DC70325C4FAEFF04FB52324A4FAFA
:10262000832784FA83A787302322F4FA832784FA46
:1026300083A70730832544FA694582970100F64055
:10264000E6425643C6433644264596450646F2566C
:102650006257D2574258B258225E925E025FF24FE2
:102660002561730020301D7186CE96CC9ACA9EC813
:10267000A2C6AAC4AEC2B2C036DE3ADC3EDA42D846
:1026800046D672D476D27AD07ECE8010EFF0EFB5F7
:102690002A87B70700800A079387C748BA979C43E1
:1026A0002326F4FA8327C4FA8DC70325C4FAEFF072
:1026B000EFAB2324A4FA832784FA83A707322322CB
:1026C000F4FA832784FA83A78731832544FA6D457A
:1026D00082970100F640E6425643C64336442645FB
:1026E00096450646F2566257D2574258B258225E75
:1026F000925E025FF24F2561730020301D7186CE1D
:1027000096CC9ACA9EC8A2C6AAC4AEC2B2C036DED1
:102710003ADC3EDA42D846D672D476D27AD07ECE31
:102720008010EFF08FAC2A87B70700800A079387E5
:10273000C748BA979C432326F4FA8327C4FA8DC767
:102740000325C4FAEFF08FA22324A4FA832784FA86
:1027500083A787332322F4FA832784FA83A70733D6
:10276000832544FA714582970100F640E6425643BC
:10277000C6433644264596450646F2566257D2571A
:102780004258B258225E925E025FF24F256173009A
:1027900020301D7186CE96CC9ACA9EC8A2C6AAC405
:1027A000AEC2B2C036DE3ADC3EDA42D846D672D489
:1027B00076D27AD07ECE8010EFF02FA32A87B7078B
:1027C00000800A079387C748BA979C432326F4FAE8
:1027D0008327C4FA8DC70325C4FAEFF02F99232469
:1027E000A4FA832784FA83A707352322F4FA8327E0
:1027F00084FA83A78734832544FA754582970100BC
:10280000F640E6425643C6433644264596450646BC
:10281000F2566257D2574258B258225E925E025F19
:10282000F24F2561730020301D7186CE96CC9ACA76
:102830009EC8A2C6AAC4AEC2B2C036DE3ADC3EDA38
:1028400042D846D672D476D27AD07ECE8010EFF0BF
:10285000CF992A87B70700800A079387C748BA9796
:102860009C432326F4FA8327C4FA8DC70325C4FAB0
:10287000EFF0CF8F2324A4FA832784FA83A7873627
:102880002322F4FA832784FA83A70736832544FAA0
:10289000794582970100F640E6425643C6433644E6
:1028A000264596450646F2566257D2574258B258C8
:1028B000225E925E025FF24F2561730020301D712F
:1028C00086CE96CC9ACA9EC8A2C6AAC4AEC2B2C0D0
:1028D00036DE3ADC3EDA42D846D672D476D27AD0A8
:1028E0007ECE8010EFF06F902A87B70700800A072E
:1028F0009387C748BA979C432326F4FA8327C4FAE0
:102900008DC70325C4FAEFF06F862324A4FA83272A
:1029100084FA83A707382322F4FA832784FA83A74B
:102920008737832544FA7D4582970100F640E642C9
:102930005643C6433644264596450646F2566257E8
:10294000D2574258B258225E925E025FF24F256122
:1029500073002030011122CE0010F32750302326BF
:10296000F4FE8327C4FE93F7F7032326F4FE032720
:10297000C4FE8947630DF7000327C4FE8D47630A31
:10298000F7000327C4FE85476307F70039A08D478A
:1029900031A0914721A0854711A081473E8572440F
:1029A00005618280797122D60018232EA4FC232C85
:1029B000B4FCF32750302326F4FE8327C4FE93F79C
:1029C00007FC2326F4FE832784FD2324F4FE03273B
:1029D000C4FD914763E0E7068327C4FD13972700F2
:1029E000B70701209387073BBA979C4382878327C9
:1029F00084FE739077308327C4FE93E7270073909B
:102A000057300DA8832784FE739077308327C4FE48
:102A100093E737007390573031A8832784FE93E7FC
:102A200017007390573039A0832784FEF19B739071
:102A3000573001000100325445618280011122CEDD
:102A400000102326A4FE0327C4FEAD476302F7044B
:102A50000327C4FEAD4763CDE7000327C4FE8D47BF
:102A60006308F7020327C4FE9D476303F7021DA016
:102A70000327C4FEC147634FF7000327C4FEFD4789
:102A800063D8E7000327C4FE930700086314F70028
:102A9000854719A0010081473E8572440561828007
:102AA000797106D622D40018232EA4FC232CB4FC62
:102AB000232AC4FC232604FE8327C4FD99E3FD5783
:102AC00049A8032784FDFD4763E0E708832784FDC9
:102AD00013972700B70701209387473CBA979C4379
:102AE0008287832744FD81C7EFE0DFF18DA0EFE00F
:102AF000FFF2B1A8832744FD81C7EFE0BFF381A8AF
:102B0000EFE0DFF4A9A0832744FD81C7EFE09FF544
:102B10003DA8EFE0DFF625A8832744FD81C7EFE05D
:102B2000BFF735A0EFE01FF91DA0832744FD99C72B
:102B3000832784FD3E85EFE0BFF911A8832784FD3C
:102B40003E85EFE0BFFB21A0FD572326F4FE83273F
:102B5000C4FE3E85B250225445618280797122D6EE
:102B60000018232EA4FC232CB4FC232AC4FC8327A6
:102B7000C4FD2326F4FE032784FDAD4763C2E702AC
:102B8000832744FD91CF0327C4FE832784FD9387C9
:102B9000870E8A07BA97032744FD98C3814711A07F
:102BA000FD573E85325445618280797106D622D424
:102BB0000018232EA4FC8327C4FD2322F4FE8327C0
:102BC00044FEDC43DDEF232604FEB9A0832644FE49
:102BD0000327C4FEBA878607BA978E07B69723A83D
:102BE0000708832644FE0327C4FEBA878607BA97E0
:102BF0008E07B69723AA0708832644FE0327C4FE40
:102C0000BA878607BA978E07B69723AC070883273B
:102C1000C4FE85072326F4FE0327C4FEFD47E3D741
:102C2000E7FA232404FE1DA0032744FE832784FE25
:102C30009387870E8A07BA9737270120130787B231
:102C400098C3832784FE85072324F4FE032784FE8C
:102C5000AD47E3DBE7FCF32750302320F4FEB70752
:102C6000012093878717032704FE6318F700B7270F
:102C70000120938507E001453533832744FE05474E
:102C8000D8C30100B250225445618280797106D6C2
:102C900022D40018232EA4FC232CB4FC232AC4FC29
:102CA0002328D4FC232604FE8327C4FD2324F4FE1A
:102CB000032584FD6133AA8799E3D55771AA0327B9
:102CC00084FD930700086317F7006931AA8799C349
:102CD000CD5759A2832744FDB9CF032784FD93071D
:102CE0000008631FF700832784FE032744FD23A801
:102CF000E738832784FE032704FD23ACE73899AA2D
:102D0000832684FE032784FDBA878607BA978E0739
:102D1000B697032744FD23A8E708832684FE0327EC
:102D200084FDBA878607BA978E07B697032704FDF6
:102D300023ACE70805A2032784FDAD47630CF70C1D
:102D4000032784FDAD4763CDE700032784FD8D474E
:102D50006309F702032784FD9D476301F706C5A8B1
:102D6000032784FDC1476344F70E032784FDFD4715
:102D700063D2E70A032784FD93070008630DF70673
:102D8000F9A0832684FE032784FDBA878607BA97B5
:102D90008E07B69737270120130787C123A8E708B6
:102DA000832684FE032784FDBA878607BA978E0799
:102DB000B697032704FD23AAE70869A8832684FEA3
:102DC000032784FDBA878607BA978E07B6973727F9
:102DD0000120130787D223A8E708832684FE032750
:102DE00084FDBA878607BA978E07B697032704FD36
:102DF00023AAE70885A0832784FE3727012013072D
:102E000027D123A8E738832784FE032704FD23ACBA
:102E1000E73889A0832684FE032784FDBA878607C6
:102E2000BA978E07B69737270120130707B423A850
:102E3000E708832684FE032784FDBA878607BA97AE
:102E40008E07B697032704FD23AAE70821A0D157D0
:102E50002326F4FE8327C4FE3E85B25022544561EA
:102E60008280011106CE22CC00102326A4FE23244A
:102E7000B4FE832784FE0546BE850325C4FE0D31BE
:102E8000AA873E85F240624405618280011106CE28
:102E900022CC00102326A4FE2324B4FE832784FE24
:102EA0000146BE850325C4FEE53EAA873E85F24065
:102EB000624405618280011106CE22CC00102326D7
:102EC000A4FE493CAA873E85F240624405618280A7
:102ED000011106CE22CC00102326A4FE2324B4FE2A
:102EE000832784FE91EBB7270120938507E0032514
:102EF00084FE4D3C814705A0032784FE8547631B64
:102F0000F700B7470120938507E0032584FE593C6D
:102F1000814711A0FD573E85F240624405618280E1
:102F2000011122CE00102326A4FE2324B4FE232266
:102F3000C4FE81473E85724405618280397122DE7C
:102F400080002326A4FC01438143232464FE23261E
:102F500074FE732500B82322A4FE732500B023203D
:102F6000A4FE732500B8232EA4FC832844FE032569
:102F7000C4FDE390A8FE032544FEAA8501461398EC
:102F800005008147032604FEB286014733E6D700D9
:102F90002324C4FEB367E8002326F4FE832784FEBF
:102FA0000328C4FE3E85C2857254216182807971F6
:102FB00006D622D44AD24ED00018232EA4FC832752
:102FC000C4FD81E70149814921A80325C4FDEFE043
:102FD0005F972326A4FE8327C4FE3E89FD87BE8912
:102FE000CA874E883E85C285B250225412598259F2
:102FF00045618280797106D622D40018232EA4FC64
:10300000814701482320F4FE232204FF0325C4FD49
:10301000EFE0DF952326A4FE8327C4FE8DC7832718
:10302000C4FE83A7C7132324F4FE832784FE81CF25
:10303000832784FE9C43F847930704FE3E8685451C
:10304000032584FE0297832704FE032844FE3E8561
:10305000C285B250225445618280797106D622D44D
:1030600026D20018232EA4FC2328B4FC232AC4FC57
:10307000FD572326F4FE0325C4FDEFE03F8F2324F4
:10308000A4FE832784FE8DCF832784FE83A7C713E6
:103090002322F4FE832744FE85C7832744FE9C43F6
:1030A000A44B0325C4FDEFE09F87AA87032604FDF8
:1030B000832644FDBE85032544FE82942326A4FE78
:1030C0008327C4FE3E85B2502254925445618280CB
:1030D000011122CE00102326A4FEB707008093879B
:1030E00007493E85724405618280011122CE00109D
:1030F0002326A4FE9D473E8572440561828001110E
:1031000022CE00102326A4FEB7070080938707492C
:103110003E85724405618280011122CE0010232673
:10312000A4FE8D473E85724405618280797106D682
:1031300022D40018232EA4FC232CB4FCFD572326F4
:10314000F4FE0325C4FDEFE07F822324A4FE832741
:1031500084FE9DC7832784FE83A7C70D2322F4FE28
:10316000832744FE91CF832744FE9C43F84793076F
:1031700084FD3E868D45032544FE02972326A4FE4A
:103180008327C4FE3E85B250225445618280797106
:1031900006D622D40018232EA4FC232CB4FCFD5701
:1031A0002326F4FE0325C4FDEFE04FFC2324A4FEF8
:1031B000832784FE9DC7832784FE83A7C70D232210
:1031C000F4FE832744FE91CF832744FE9C43F847B7
:1031D000930784FD3E868945032544FE02972326F6
:1031E000A4FE8327C4FE3E85B250225445618280EE
:1031F000797106D622D40018232EA4FC232CB4FC0B
:10320000232604FE0325C4FDEFE04FF62324A4FE8D
:10321000832784FE9DC7832784FE83A7C70D2322AF
:10322000F4FE832744FE91CF832744FE9C43F84756
:10323000930784FD3E869145032544FE029723268D
:10324000A4FE8327C4FE3E85B2502254456182808D
:10325000011106CE22CC00102326A4FE0325C4FEB5
:10326000EFE0CFF0AA873E85F2406244056182809C
:10327000797106D622D40018232EA4FC232CB4FC8A
:10328000232AC4FC0325C4FDEFE04FEE2326A4FE51
:103290008327C4FE99CB032644FD832584FD0325A3
:1032A000C4FEEFF0BF8BAA8711A0FD573E85B25038
:1032B000225445618280011122CE00102326A4FEF3
:1032C0002324B4FE832784FE83D7070013F7370037
:1032D0008D476314F700914711A089473E857244DA
:1032E00005618280797122D60018232EA4FCF32771
:1032F00010342326F4FE8327C4FE3E8532544561F4
:103300008280011122CE00102326A4FE2324B4FEC5
:10331000832784FE7390173481473E85724405618C
:103320008280011106CE22CC00102326A4FE0325A4
:10333000C4FEEFE04FE6AA873E85F2406244056195
:103340008280011122CE00102326A4FEB707008040
:103350009387C7063E85724405618280011122CEA3
:1033600000102326A4FE938781813E857244056167
:103370008280011122CE00102326A4FE81473E85C3
:10338000724405618280411122C600089387C18280
:103390003E85324441018280397106DE22DC8000A4
:1033A0002326A4FC0325C4FC693F2326A4FE032591
:1033B000C4FCC1372324A4FE0325C4FC45372322C3
:1033C000A4FED1372320A4FE832704FE9C4383253B
:1033D00084FE032544FE8297232EA4FC0327C4FD0C
:1033E000B7070040F98F99E3FD5725A08327C4FD57
:1033F00063C40700FD5731A80325C4FEEF00B00ADF
:10340000AA873E878327C4FD93F7F7038507B35741
:10341000F7023E85F250625421618280011106CE8E
:1034200022CC00102326A4FE2324B4FE0325C4FED0
:10343000A537AA873E85F24062440561828001116A
:1034400022CE00102326A4FEB7070080938707062C
:103450003E85724405618280011122CE0010232630
:10346000A4FE938781813E857244056182800111AB
:1034700022CE00102326A4FE91473E8572440561AA
:103480008280411122C600089387C1823E85324462
:1034900041018280397106DE22DC80002326A4FCF3
:1034A0000325C4FC693F2326A4FE0325C4FCC137C1
:1034B0002324A4FE0325C4FC45372322A4FED137D0
:1034C0002320A4FE832704FE9C43832584FE03253A
:1034D00044FE8297232EA4FC0327C4FDB7070040B7
:1034E000F98F99E3FD5721A88327C4FD63C4070022
:1034F000FD5731A00325C4FEEF00E07AAA873E8580
:10350000F250625421618280011106CE22CC00105B
:103510002326A4FE2324B4FE0325C4FEA53FAA87C8
:103520003E85F240624405618280011122CE001086
:103530002326A4FEB7070080938707463E85724482
:1035400005618280011122CE00102326A4FEB70758
:1035500000809387C7463E857244056182800111D1
:1035600022CE00102326A4FE938781813E857244DB
:1035700005618280011122CE00102326A4FEB147EE
:103580003E85724405618280411122C600089387FE
:1035900081813E85324441018280411122C600086A
:1035A000A1473E85324441018280411122C6000874
:1035B000B727F400938707403E853244410182805B
:1035C000411122C60008B78700103E8532444101F0
:1035D0008280411122C600089387C1823E85324411
:1035E00041018280011122CE00102326A4FE232453
:1035F000B4FE832784FE9C470327C4FE6369F7005B
:10360000832784FEDC470327C4FE63F4E700FD57ED
:1036100029A8832784FE98438327C4FE3307F70233
:10362000832784FEDC43B357F7023E85724405616D
:103630008280397106DE22DC80002326A4FC8327E9
:10364000C4FC3E8501372326A4FE85372324A4FE2F
:10365000A9372322A4FEAD372320A4FE032704FEAE
:10366000832744FEBA97232EF4FC8327C4FCDC4353
:103670003E85D52B8327C4FD9843C167F98F91CB35
:103680008327C4FD9843C177FD177D8F8327C4FD31
:1036900098C38327C4FE91CB8327C4FD9843B70703
:1036A00002005D8F8327C4FD98C38327C4FC9C431D
:1036B000D8438327C4FC832584FE3E850297832755
:1036C000C4FC9C473E8545230100F25062542161B1
:1036D00082801D7186CEA2CC80102326A4FA0325F9
:1036E000C4FA8D352326A4FE0325C4FA3D3D2324C8
:1036F000A4FE0325C4FA55352322A4FE0325C4FAEB
:1037000061352320A4FE0325C4FAAD35232EA4FC85
:103710000325C4FAA935232CA4FC653D232AA4FC67
:10372000832744FD9C43832544FE032504FE8297A2
:103730002328A4FC832744FD9C438325C4FD032543
:1037400084FD82972326A4FC032704FDC1677D8F97
:10375000C1676377F700032584FEB123AA87D9A840
:10376000032704FDB70702007D8FB70702006365DA
:10377000F7008327C4FE19A0832784FE3E852523F6
:103780002324A4FC032704FDB70704007D8FB7079B
:1037900004006365F700832784FC69A8832704FD80
:1037A0009D8B85072322F4FC832704FD93F7073FB5
:1037B0009183850786072320F4FC032704FD856792
:1037C000938707C07D8F9307F03F63E4E700FD57C1
:1037D00095A0032704FD8567938707C0F98FA98308
:1037E0000547B317F700232EF4FA032784FC832739
:1037F00044FC3347F702832704FC3307F70283278F
:10380000C4FBB347F702232CF4FA8327C4FC13F755
:1038100007109307F00F63F5E700832784FB19A8CF
:10382000032784FB8327C4FC93F7F70385078607E8
:10383000B357F7023E85F6406644256182803971B0
:1038400006DE22DC80002326A4FC2324B4FCFD57E2
:103850002326F4FEB707008093C7F7FF2324F4FE66
:10386000930730042322F4FEADA08326C4FC8327F3
:1038700044FE13975700B70701209387C74EBA97A6
:10388000BE85368585332320A4FE032704FEFD571D
:10389000630CF702032704FE832784FC1D8F9357D4
:1038A000F7413D8FB307F740232EF4FC0327C4FDF7
:1038B000832784FE635AF700832744FE2326F4FE01
:1038C0008327C4FD2324F4FE832744FEFD1723220F
:1038D000F4FE832744FEE3DA07F88327C4FE3E851F
:1038E000F250625421618280797106D622D4001888
:1038F000232EA4FC232CB4FC232AC4FC8327C4FD60
:103900009C4313F787FF8327C4FD98C38327C4FD17
:103910009843832744FD9C4B9D8B5D8F8327C4FD7B
:1039200098C38327C4FD9C4313F7F7C08327C4FDC6
:1039300098C38327C4FD9843832744FDDC4B92073B
:1039400093F7073F5D8F8327C4FD98C38327C4FD8A
:103950009843FD779387F73F7D8F8327C4FD98C3F6
:103960008327C4FD9843832744FD9C4F9396A7006B
:103970008567938707C0F58F5D8F8327C4FD98C344
:10398000832744FDDC4F63DB0702832784FD9C43D0
:1039900013E70710832784FD98C3832784FD9C4386
:1039A00013F707FC832784FD98C3832784FD9C437A
:1039B00013E71700832784FD98C32DA8832784FD70
:1039C0009C4313F7F7EF832784FD98C3832784FD77
:1039D0009C4313F707FC832784FD98C3832784FD4A
:1039E0009843832744FDDC4F93F7F7035D8F8327CC
:1039F00084FD98C38327C4FD9843B707FCFFFD17D8
:103A00007D8F8327C4FD98C3930704FE3E868545BA
:103A1000B707008013850749EFD0DFD6832604FE61
:103A2000032744FE91450146B387B6003E853335F2
:103A3000D5003308C700330705013A882324F4FE74
:103A4000232604FF19A8930704FE3E868545B70781
:103A5000008013850749EFD0FFD2832704FE032897
:103A600044FE0327C4FEC286636BD7000327C4FE4F
:103A7000C286E31AD7FC032784FEE376F7FC010035
:103A80008327C4FD9C43E3DD07FE0100B2502254AE
:103A9000456182805D7186C6A2C48008232EA4FA87
:103AA000232CB4FA0325C4FBEFF0DFA92326A4FEE0
:103AB0000325C4FBEFF07FA72324A4FE0325C4FB4A
:103AC000E93C2322A4FE0325C4FBEFF0BFAA232078
:103AD000A4FEFD34232EA4FC0327C4FD832744FE4B
:103AE000BA97232CF4FC0327C4FD832704FEBA975E
:103AF000232AF4FC832784FD9843C167F98F91CB77
:103B0000832784FD9843C177FD177D8F832784FD2C
:103B100098C3832784FD9843B7070200F98F81C7B4
:103B20008327C4FE19A0832784FE3E85AD2A23285F
:103B3000A4FC032704FDBA878607BA9713D7F74179
:103B40000D8BBA9789873E87832784FB63CBE70277
:103B5000032704FDBA878A07BA9713D7F7410D8B5D
:103B6000BA9789873E87832784FB634CF7008327B6
:103B700084FD9843B70704005D8F832784FD98C3B5
:103B8000B1A0832584FB032504FD55392326A4FC1D
:103B90000327C4FCFD576302F7028327C4FC139775
:103BA0005700B70701209387C74EBA973E868325F3
:103BB00044FD032584FD0D3B11A8832784FD984314
:103BC000B70704005D8F832784FD98C3832784FD96
:103BD0009843C1675D8F832784FD98C30325C4FB89
:103BE000CD3CAA873E85B640264461618280411162
:103BF00022C60008B78700103E853244410182800A
:103C0000797106D622D40018232EA4FC232CB4FCF0
:103C1000F93FAA872326F4FE032784FD8327C4FEE9
:103C2000BA979C433E85B250225445618280797197
:103C300006D622D40018232EA4FC232CB4FC232A5D
:103C4000C4FC7537AA872326F4FE032784FD832747
:103C5000C4FEBA973E87832744FD1CC33E85B250FD
:103C6000225445618280797106D622D40018232E11
:103C7000A4FC8327C4FD2326F4FE31A88327C4FEB9
:103C800098438327C4FEDC433E8502978327C4FE06
:103C90009C472326F4FE8327C4FEEDF30100B250B7
:103CA000225445618280011106CE22CC00102326C9
:103CB000A4FE8327C4FE9C439C430325C4FE829735
:103CC000AA873E85F240624405618280797106D6FA
:103CD00022D40018232EA4FC232CB4FC8327C4FD7B
:103CE000DC433E8549378327C4FD9C43DC43832561
:103CF00084FD0325C4FD82972326A4FE8327C4FDEB
:103D00009C473E858D378327C4FE3E85B2502254A2
:103D100045618280011106CE22CC00102326A4FE2C
:103D20008327C4FE9C43DC570325C4FE8297AA87E1
:103D30003E85F240624405618280011122CE00106E
:103D40002326A4FE8327C4FE99EBB7070080032730
:103D5000C4FE0A079387C748BA979C4311A08147BE
:103D60003E85724405618280011122CE0010F32746
:103D700040F12326F4FE8327C4FE3E85724405618C
:103D80008280011122CE00102326A4FE0100FDBF77
:103D90000000000000000000000000000000000023
:103DA0000000000000000000000000000000000013
:103DB0000000000000000000000000000000000003
:103DC00000000000000000000000000000000000F3
:103DD00000000000000000000000000000000000E3
:103DE00000000000000000000000000000000000D3
:103DF00000000000000000000000000000000000C3
:103E00006FD09FD56FD05FD56FD01FD56FD0BFD784
:103E10006FD09FD46FD05FD46FD01FD46FD05FE6C8
:103E20006FD09FD36FD05FD36FD01FD36FD0DFD24F
:103E30006FD09FD26FD05FD26FD01FD26FD0DFD143
:103E40006FE06F9B6FE06FA46FE08FAD6FE0AFB678
:103E50006FE0CFBF6FE0EFC86FE00FD26FE02FDBF6
:103E60006FE04FE46FE06FED6FE08FF66FE0AFFF54
:103E70006FE0DF886FE0FF916FE01F9B6FE03FA472
:103E8000011122CE00102326A4FE0327C4FEB7078B
:103E90000080938707066317F700B727F40093871E
:103EA000074099A00327C4FEB70700809387C70681
:103EB0006317F700B7A74A049387072035A00327A5
:103EC000C4FEB7070080938787076314F700A167D4
:103ED00021A80327C4FEB70700809387470863140F
:103EE000F700A16711A081473E8572440561828079
:103EF000011106CE22CC00102326A4FE0325C4FE09
:103F00004137AA873E85F2406244056182800111F3
:103F100006CE22CC00102326A4FE2324B4FE0325C3
:103F2000C4FEF937AA873E85F2406244056182806B
:103F3000011106CE22CC00102326A4FE0325C4FEC8
:023F40008935C1
:103F48000000000000000000000000000000000069
:103F58000000000000000000000000000000000059
:103F68000000000000000000000000000000000049
:103F78000000000000000000000000000000000039
:103F88000000000000000000000000000000000029
:103F98000000000000000000000000000000000019
:103FA800BC0400800000000000000000BC04008089
:103FB8000000000000000000BC04008000000000B9
:103FC80000000000BC0400800000000000000000A9
:103FD8004404012000000000000000000000000070
:103FE80000000000000000000000000000000000C9
:103FF80000000000000000000000000000000000B9
:1040080000000000000000000000000000000000A8
:104018000000000000000000000000000000000098
:1043A800A40400800000000000000000AC040080AD
:1043B8000000000000000000700D01200000000057
:1043C8000000000000000000000000809804008049
:1043D8004C03012000000000A80401200000000098
:1043E800B4040080983301201C3401209434012047
:1043F80008350120003C01202E3C0120F03E012020
:044408000E3F012042
:0400000520010000D6
:00000001FF
